:040000005DEF00F0C0
:1000080004829EA60AEF00F00CEF00F05BEF00F010
:10001800C698C6BC12EF00F014EF00F01BEF00F01A
:10002800C6AE19EF00F01BEF00F021EF00F0C9CFCA
:1000380001F0026AC69CC69EC688C7BA26EF00F0C1
:1000480028EF00F03EEF00F0C7B42DEF00F02FEFDF
:1000580000F03EEF00F0C9CF01F0026AC7A037EF09
:1000680000F039EF00F032EF00F0C9CF83FFC68807
:100078005AEF00F0C7BA43EF00F045EF00F05AEF2F
:1000880000F0C7A44AEF00F04CEF00F05AEF00F080
:10009800C9CF01F0026AC79081CFC9FFC688C7B02F
:1000A80058EF00F05AEF00F053EF00F09E960492DC
:1000B800110078EF00F0036E800EC76E03C0C8FF12
:1000C800360EC66E010EC56E94869488F28EF28C3A
:1000D8009E969D861200010E946E300E5FEC00F025
:1000E80074EF00F05DEF00F0026A016A0490049278
:0600F80000016FEF00F0B3
:020000040020DA
:08000000FFFFFFFFFFFFFFFF00
:020000040030CA
:08000000FFE70F0EFF0103FFF3
:00000001FF
