:04000000F0EF3EF0EF
:107DE000000111EF3FF000EC3FF0C580120000EC05
:107DF0003FF0C584120000EC3FF001C0C9FF120043
:107E0000C7B405EF3FF007EF3FF000EF3FF01F0E64
:107E1000C518D8B40EEF3FF010EF3FF000EF3FF081
:107E20001200640E1A6E000E1B6E000E1C6E000E09
:107E30001D6E6FEC3FF0F3EC3EF0000E026E300E64
:107E4000016EFBEC3EF0000E026E310E016EFBEC9B
:107E50003EF0F7EC3EF00B0E236E260E226E5E0E09
:107E6000E82EFED7222EFCD7232EFAD71BEF3FF0A9
:107E700000EF00F0000E096E000E0A6E000E0B6E91
:107E8000000E0C6E01A047EF3FF049EF3FF051EFBD
:107E90003FF00550092606500A2207500B220850D1
:107EA0000C22D8900536063607360836D8900432AC
:107EB0000332023201320150021003100410D8A420
:107EC00064EF3FF066EF3FF042EF3FF009C001F092
:107ED0000AC002F00BC003F00CC004F01200C68A06
:107EE000280EC66E000EC76E000EC56E000E0D6E1B
:107EF000120E0E6E7A0E0F6E000E106E1AC01EF06D
:107F00001BC01FF01CC020F01DC021F0020ED89035
:107F10001E361F3620362136E82E87EF3FF01EC072
:107F200001F01FC002F020C003F021C004F0640E75
:107F3000056E000E066E000E076E000E086E3AEC1F
:107F40003FF001C011F002C012F003C013F004C0F2
:107F500014F0AEEC3FF00D04C86E1200000E156E6A
:107F6000000E166E000E176E000E186E11501210D5
:107F700013101410D8B4BFEF3FF0C1EF3FF0F7EF8C
:107F80003FF0010E196ECBEF3FF0D890113612364C
:107F900013361436192A14AED0EF3FF0D2EF3FF06B
:107FA000C5EF3FF0D89015361636173618361150F3
:107FB0000D5C12500E5813500F5814501058D8A082
:107FC000E4EF3FF0E6EF3FF0EFEF3FF011500D5ED2
:107FD00012500E5A13500F5A1450105A1580D89040
:107FE0001432133212321132192ED2EF3FF015C073
:107FF0000DF016C00EF017C00FF018C010F01200F0
:020000040020DA
:08000000FFFFFFFFFFFFFFFF00
:020000040030CA
:08000000FFE70F0EFF0103FFF3
:00000001FF
