:0600000000F0B0EF1FF05C
:103F3400FFFF48454C4C4F00FFFF016EFFFF9EA85A
:103F4400A6EF1FF0A9EF1FF0FFFFA0EF1FF0FFFF88
:103F54009E9801C0ADFF1200FFFFFFFF360EF66E04
:103F64003F0EF76E000EF86E00EE09F010EE06F04C
:103F74000900F5CFEEFFE550E150FAE10001C3EF8F
:103F84001FF0FFFF720ED36E949C948EAC9CAC8A8F
:103F9400AC98AC849D989D9AAB8EAB9CAB88F28E0A
:103FA400F28C340EAF6E20EE09F010EE02F0050E26
:103FB400DBCFE3FFE806FCE2000E086EEDEF1FF036
:103FC400FFFF020E0824D96EDA6A000EDA22DF50EF
:103FD4009EEC1FF0082AFFFF020E0824D96EDA6A4D
:103FE400000EDA22DF50D8A4FAEF1FF0FDEF1FF025
:0C3FF400FFFFE2EF1FF0FFFF01EF00F005
:020000040020DA
:08000000FFFFFFFFFFFFFFFF00
:020000040030CA
:0E000000FF270F0EFF0185FF0FC00FE00F401E
:00000001FF
